:020000040000FA
:10000000700400206D020000710200007302000005
:100010007502000077020000790200000000000075
:100020000000000000000000000000007B02000053
:100030007D020000000000007F020000810200003D
:10004000830200008302000083020000830200009C
:10005000830200008302000083020000830200008C
:10006000830200008302000083020000830200007C
:10007000830200008302000083020000830200006C
:10008000830200008302000083020000830200005C
:10009000830200008302000083020000830200004C
:1000A000830200008302000083020000830200003C
:1000B0008302000083020000CD03000083020000E1
:1000C000830200008302000083020000830200001C
:1000D000830200008302000083020000830200000C
:1000E00083020000830200008302000083020000FC
:1000F00083020000830200008302000083020000EC
:1001000083020000830200008302000083020000DB
:1001100083020000830200008302000083020000CB
:1001200083020000830200008302000083020000BB
:1001300083020000830200008302000083020000AB
:1001400000000000000000000000000000000000AF
:10015000830200008302000083020000830200008B
:10016000000000000000000000000000000000008F
:10017000000000000000000000000000000000007F
:10018000000000000000000000000000000000006F
:10019000000000000000000000000000000000005F
:1001A000000000000000000000000000000000004F
:1001B000830200008302000083020000830200002B
:1001C000830200008302000083020000830200001B
:1001D000830200008302000083020000830200000B
:1001E00083020000830200008302000083020000FB
:1001F00083020000830200008302000083020000EB
:10020000830200008302000083020000000000005F
:1002100083020000830200008302000083020000CA
:1002200083020000830200008302000083020000BA
:1002300083020000830200008302000083020000AA
:10024000830200008302000083020000830200009A
:10025000830200008302000083020000830200008A
:1002600083020000830200008302000000F00AB84D
:10027000FEE7FEE7FEE7FEE7FEE7FEE7FEE7FEE756
:10028000FEE7FEE700F002F800F03AF80AA090E876
:10029000000C82448344AAF10107DA4501D100F041
:1002A0002FF8AFF2090EBAE80F0013F0010F18BFD4
:1002B000FB1A43F001031847CC0C0000EC0C0000C3
:1002C000103A24BF78C878C1FAD8520724BF30C882
:1002D00030C144BF04680C60704700000023002454
:1002E00000250026103A28BF78C1FBD8520728BF46
:1002F00030C148BF0B6070471FB51FBD10B510BDA2
:1003000000F029F81146FFF7F7FF00F01FFD00F09D
:1003100047F803B4FFF7F2FF03BC00F04FF800000A
:1003200072B6704762B67047EFF3108072B67047CE
:1003300080F31088704730BF704702480249014A75
:10034000024B7047700000207004002070000020F5
:10035000704770477047754600F02CF8AE460500B0
:100360006946534620F00700854618B020B5FFF7D0
:10037000E4FFBDE820404FF000064FF000074FF0CB
:1003800000084FF0000BAC46ACE8C009ACE8C0096F
:10039000ACE8C009ACE8C00921F007018D46704700
:1003A00010B50446AFF300802046BDE81040FFF7CB
:1003B000B0BF000000487047080000200149182025
:1003C000ABBEFEE7260002007047000080B540F299
:1003D0006900C2F2000090F90000322840F0BF80AE
:1003E000FFE745F21440C4F202000068C00600288E
:1003F00040F18C80FFE745F23800C4F2020000684B
:1004000002280DD1FFE745F23801C4F202010820AD
:10041000086040F26801C2F20001672008706CE0D9
:1004200045F23800C4F20200006808280DD1FFE749
:1004300045F23801C4F202010420086040F268016C
:10044000C2F200016220087056E045F23800C4F2A2
:100450000200006804280DD1FFE745F23801C4F21C
:1004600002010620086040F26801C2F2000170201B
:10047000087040E045F23800C4F202000068062827
:100480000DD1FFE745F23801C4F202010E200860E9
:1004900040F26801C2F20001772008702AE045F2BC
:1004A0003800C4F2020000680E280DD1FFE745F2C3
:1004B0003801C4F202010020086040F26801C2F273
:1004C00000016420087014E045F23800C4F2020014
:1004D000006868B9FFE745F23801C4F20201022062
:1004E000086040F26801C2F2000172200870FFE764
:1004F000FFE7FFE7FFE7FFE7FFE745F21C41C4F234
:100500000201086840F01000086027E045F214403E
:10051000C4F202000068C007F8B1FFE745F21041DD
:10052000C4F20201086820F01000086040F2680080
:10053000C2F2000090F9000000F092FB40F20001CE
:10054000C2F200010020086045F21C41C4F2020121
:10055000086840F001000860FFE7FFE7FFE740F2AE
:100560006900C2F2000090F90000332819D1FFE7BA
:1005700045F21440C4F202000068C00600280FD5FE
:10058000FFE745F21041C4F20201086820F01000B4
:10059000086045F21C41C4F2020110200860FFE728
:1005A000FFE780BD81B04EF20810C4F20F00016871
:1005B00041F0200101600068009045F22051C4F232
:1005C000020144F24B30C4F64F40086045F224511A
:1005D000C4F20201086840F01F00086045F20041C3
:1005E000C4F20201086840F00E00086045F21051A4
:1005F000C4F20201086840F01100086045F21C5185
:10060000C4F20201086840F01F00086045F204418E
:10061000C4F20201086820F01100086045F20841A8
:10062000C4F20201086820F01100086045F20C4194
:10063000C4F20201086840F01100086045F21C4154
:10064000C4F20201112008604EF21C41CEF20001FA
:10065000086820F47F000A68104340F40010086026
:100660004EF20011CEF20001086840F080400860B0
:1006700001B0704780B540F26901C2F2000132203A
:10068000087045F21041C4F20201086840F0110000
:10069000086000F05DFA40F26801C2F200010870E3
:1006A000FFE740F20000C2F200000068002800F0FE
:1006B0009D80FFE740F26800C2F2000090F9000060
:1006C000722809D0FFE740F26800C2F2000090F9FA
:1006D0000000522807D1FFE745F23801C4F20201B9
:1006E0000220086081E040F26800C2F2000090F948
:1006F0000000672809D0FFE740F26800C2F200005E
:1007000090F90000472807D1FFE745F23801C4F20D
:1007100002010820086067E040F26800C2F20000B1
:1007200090F90000622809D0FFE740F26800C2F2A9
:10073000000090F90000422807D1FFE745F2380198
:10074000C4F20201042008604DE040F26800C2F2E9
:10075000000090F90000702809D0FFE740F268001F
:10076000C2F2000090F90000502807D1FFE745F2DF
:100770003801C4F202010620086033E040F268004C
:10078000C2F2000090F90000772809D0FFE740F29C
:100790006800C2F2000090F90000572807D1FFE777
:1007A00045F23801C4F202010E20086019E040F25F
:1007B0006800C2F2000090F90000642809D0FFE749
:1007C00040F26800C2F2000090F90000442807D10E
:1007D000FFE745F23801C4F2020100200860FFE79C
:1007E000FFE7FFE7FFE7FFE7FFE75AE780BD00000D
:1007F00080B58AB040F26901C2F20001332008706E
:100800000DF10A0001901E2100F0B4F900F02CF85F
:10081000019800F021F945F21041C4F20201086884
:1008200040F010000860FFE745F21040C4F20200FB
:100830000068C006002801D5FFE7F5E740F67870AC
:10084000C0F2000000F026FA2720009000F008FA1D
:100850000DF10A0000F01EFA009800F001FA0320E2
:1008600000F0FEF90AB080BD80B582B00020019092
:10087000FFE70198B0F5FC7F09DAFFE701200021CE
:1008800000F01CFAFFE7019801300190F1E7002128
:10089000084600F0F3F802B080BD000080B582B0D9
:1008A0004EF20411C4F20F01086840F01000086015
:1008B0004EF20810C4F20F00016841F0010101601E
:1008C0000068019044F20041C4F20001086840F061
:1008D000C000086044F22041C4F20001086840F002
:1008E0002C000860086820F0C000086044F21C5129
:1008F000C4F20001086840F0EC00086044F22C519A
:10090000C4F200010868FF22CFF60F72104042F2D5
:100910000022C0F2200210430860086820F07F40E7
:10092000086044F22851C4F20001086820F0EC008D
:10093000086048F20401C4F20001086820F00200D7
:100940000860086820F00400086048F6C872C4F225
:100950000002106820F00F00106048F21002C4F28C
:1009600000021068182363F30700106048F20002C9
:10097000C4F2000210684FF6C0739843106010680C
:1009800020F0300010601068072363F3030010604C
:10099000086840F00200086044F20021C4F200013F
:1009A000002008600190FFE70198092805D8FFE7BB
:1009B000FFE7019801300190F6E744F20021C4F20C
:1009C00000018020086000200090212100F076F9CD
:1009D00000986FF0400100F071F90098042100F0D8
:1009E0006DF90098142100F069F90098202100F0B9
:1009F00065F900980C2100F061F902B080BD00009B
:100A000080B584B08DF80F0001200021019100F025
:100A100055F901980290FFE70298042815DCFFE7DA
:100A20009DF80F0000EB800040F69851C0F20001E5
:100A300008440299084410F9A01C012000F03EF976
:100A4000FFE7029801300290E6E70120002100F064
:100A500035F904B080BD000080B582B00190FFE799
:100A60000198007840B1FFE701980078FFF7C8FFD0
:100A7000019801300190F3E702B080BD80B582B0EB
:100A80008DF807008DF806109DF807000B2805DC8F
:100A9000FFE79DF80600062801DBFFE713E09DF85D
:100AA0000700C0EBC00040F0800041B20020009081
:100AB00000F004F900989DF8061041F0400149B299
:100AC00000F0FCF8FFE702B080BD000081B04EF2FC
:100AD0007001C4F20F010091086840F00040086006
:100AE000086840F4006008604EF26002C4F20F0231
:100AF000106820F4F8601060106800F5A8601060BD
:100B0000086820F07000086008680860086820F431
:100B100000500860086840F08040086008680722BC
:100B200062F39C500860FFE74EF25000C4F20F00E1
:100B300000684006002801D4FFE7F5E74EF2700197
:100B4000C4F20F01086820F40060086001B070472B
:100B5000FFE74DF21800C4F200000068C00600284C
:100B600001D5FFE7F5E74DF20000C4F20000006890
:100B700040B2704780B584B003900291002001908C
:100B8000FFF7E6FF8DF80300FFE79DF90300032858
:100B90000FD0FFE79DF80300039908700398013018
:100BA0000390019801300190FFF7D2FF8DF8030008
:100BB000EBE703990020087004B080BD4EF20411E9
:100BC000C4F20F01086840F0020008604EF20811FC
:100BD000C4F20F01086840F0020008604DF23001D5
:100BE000C4F20001002008604DF22402C4F20002A9
:100BF0001B2010604DF22802C4F200020820106091
:100C00004DF22C02C4F200027020106045F2204226
:100C1000C4F20002106840F00300106045F22C524C
:100C2000C4F20002106820F0EE001368184340F090
:100C30001100106045F21C52C4F20002106840F02E
:100C40000300106045F22852C4F20002106820F040
:100C500003001060086840F20132104308607047DA
:100C600081B08DF80300FFE74DF21800C4F20000D8
:100C700000688006002801D5FFE7F5E79DF903101D
:100C80004DF20000C4F200000160006840B201B003
:100C90007047000080B582B00190FFE701980078AE
:100CA00048B1FFE7019890F90000FFF7D9FF0198DC
:100CB00001300190F2E702B080BD000081B08DF8F4
:100CC00003008DF802109DF8030020BBFFE7FFE74B
:100CD00048F20C00C4F200000068C006002801D5EC
:100CE000FFE7F5E744F20011C4F2000100200860BC
:100CF0009DF9020048F20801C4F200010860FFE714
:100D000048F20C00C4F200000068C006002801D5BB
:100D1000FFE7F5E718E0FFE748F20C00C4F2000037
:100D200000688007002801D4FFE7F5E744F20011CE
:100D3000C4F20001402008609DF9020048F2080159
:100D4000C4F200010860FFE701B0704780B582B0CF
:100D500000200190FFF7E4FAFFF7B8FEFFF72EFF3F
:100D6000FFF79CFDFFF71EFCFFF7DCFAFFF77CFDA9
:100D7000FFE7FFF7EDFE01460091322804D0FFE7C0
:100D80000098332803D005E0FFF774FC03E0FFF779
:100D90002FFD00E0FFE7ECE7000000000000005F2F
:100DA00000000007000700147F147F14242A7F2A04
:100DB00012231308646236495522500005030000CF
:100DC000001C2241000041221C0014083E081408A7
:100DD000083E0808005030000008080808080060B5
:100DE00060000020100804023E5149453E00427F49
:100DF000400042615149462141454B311814127F50
:100E00001027454545393C4A4949300171090503D8
:100E10003649494936064949291E00363600000040
:100E20005636000008142241001414141414004112
:100E30002214080201510906324979413E7E1111FE
:100E4000117E7F494949363E414141227F4141223D
:100E50001C7F494949417F090909013E4149497AB5
:100E60007F0808087F00417F41002040413F017F0B
:100E7000081422417F404040407F020C027F7F04E3
:100E800008107F3E4141413E7F090909063E41511C
:100E9000215E7F09192946464949493101017F01EF
:100EA000013F4040403F1F2040201F3F4038403F0F
:100EB000631408146307087008076151494543002B
:100EC0007F41410002040810200041417F000402DC
:100ED00001020440404040400001020400205454FC
:100EE00054787F4844443838444444203844444883
:100EF0007F3854545418087E0901020C5252523E55
:100F00007F0804047800447D40002040443D007F79
:100F10001028440000417F40007C041804787C08BD
:100F200004047838444444387C1414140808141415
:100F3000187C7C080404084854545420043F44405E
:100F4000203C4040207C1C2040201C3C4030403C49
:100F500044281028440C5050503C4464544C4400E5
:100F60000836410000007F000000413608001008EC
:100F70000810081F247C241F492072656369657668
:100F800065642000A40F00000000002004000000A1
:100F9000C0020000A80F0000080000206804000044
:080FA000DC020000010000006A
:040000050000026D88
:00000001FF
