:020000040000FA
:10000000700400206D020000710200007302000005
:100010007502000077020000790200000000000075
:100020000000000000000000000000007B02000053
:100030007D020000000000007F020000810200003D
:10004000830200008302000083020000830200009C
:10005000830200008302000083020000830200008C
:10006000830200008302000083020000830200007C
:10007000830200008302000083020000830200006C
:10008000830200008302000083020000830200005C
:10009000830200008302000083020000830200004C
:1000A000830200008302000083020000830200003C
:1000B000830200008302000011040000830200009C
:1000C000830200008302000083020000830200001C
:1000D000830200008302000083020000830200000C
:1000E00083020000830200008302000083020000FC
:1000F00083020000830200008302000083020000EC
:1001000083020000830200008302000083020000DB
:1001100083020000830200008302000083020000CB
:1001200083020000830200008302000083020000BB
:1001300083020000830200008302000083020000AB
:1001400000000000000000000000000000000000AF
:10015000830200008302000083020000830200008B
:10016000000000000000000000000000000000008F
:10017000000000000000000000000000000000007F
:10018000000000000000000000000000000000006F
:10019000000000000000000000000000000000005F
:1001A000000000000000000000000000000000004F
:1001B000830200008302000083020000830200002B
:1001C000830200008302000083020000830200001B
:1001D000830200008302000083020000830200000B
:1001E00083020000830200008302000083020000FB
:1001F00083020000830200008302000083020000EB
:10020000830200008302000083020000000000005F
:1002100083020000830200008302000083020000CA
:1002200083020000830200008302000083020000BA
:1002300083020000830200008302000083020000AA
:10024000830200008302000083020000830200009A
:10025000830200008302000083020000830200008A
:1002600083020000830200008302000000F00AB84D
:10027000FEE7FEE7FEE7FEE7FEE7FEE7FEE7FEE756
:10028000FEE7FEE700F002F800F03AF80AA090E876
:10029000000C82448344AAF10107DA4501D100F041
:1002A0002FF8AFF2090EBAE80F0013F0010F18BFD4
:1002B000FB1A43F001031847240E0000440E00000F
:1002C000103A24BF78C878C1FAD8520724BF30C882
:1002D00030C144BF04680C60704700000023002454
:1002E00000250026103A28BF78C1FBD8520728BF46
:1002F00030C148BF0B6070471FB51FBD10B510BDA2
:1003000000F029F81146FFF7F7FF00F00BFE00F0B0
:1003100047F803B4FFF7F2FF03BC00F04FF800000A
:1003200072B6704762B67047EFF3108072B67047CE
:1003300080F31088704730BF704702480249014A75
:10034000024B7047700000207004002070000020F5
:10035000704770477047754600F02CF8AE460500B0
:100360006946534620F00700854618B020B5FFF7D0
:10037000E4FFBDE820404FF000064FF000074FF0CB
:1003800000084FF0000BAC46ACE8C009ACE8C0096F
:10039000ACE8C009ACE8C00921F007018D46704700
:1003A00010B50446AFF300802046BDE81040FFF7CB
:1003B000B0BF000000487047080000200149182025
:1003C000ABBEFEE7260002007047000080B540F695
:1003D0009A70C0F2000000F0D9FC00F083FB40F6F8
:1003E000B270C0F2000000F0D1FC00F07BFB40F6E0
:1003F000CC70C0F2000000F0C9FC00F073FB00F00C
:1004000071FB40F68270C0F2000000F0BFFC80BDBE
:1004100080B540F26800C2F2000090F90000322876
:1004200040F0C180FFE745F21440C4F202000068CA
:10043000C006002840F18C80FFE745F23800C4F286
:100440000200006802280DD1FFE745F23801C4F22E
:1004500002010820086040F20001C2F2000167209A
:1004600008706CE045F23800C4F202000068082809
:100470000DD1FFE745F23801C4F202010420086003
:1004800040F20001C2F200016220087056E045F21D
:100490003800C4F20200006804280DD1FFE745F2DD
:1004A0003801C4F202010620086040F20001C2F2E5
:1004B00000017020087040E045F23800C4F20200EC
:1004C000006806280DD1FFE745F23801C4F20201A9
:1004D0000E20086040F20001C2F20001772008708F
:1004E0002AE045F23800C4F2020000680E280DD15F
:1004F000FFE745F23801C4F202010020086040F233
:100500000001C2F200016420087014E045F23800D6
:10051000C4F20200006868B9FFE745F23801C4F28E
:1005200002010220086040F20001C2F200017220C4
:100530000870FFE7FFE7FFE7FFE7FFE7FFE745F2A8
:100540001C41C4F20201086840F01000086029E074
:1005500045F21440C4F202000068C00708B3FFE788
:1005600040F26800C2F2000090F9000000F0AAFC1E
:1005700040F20000C2F2000090F9000000F0A2FC7E
:1005800045F21041C4F20201086820F01000086032
:1005900045F21C41C4F20201086840F00100086005
:1005A000FFE7FFE7FFE780BD81B04EF20810C4F21D
:1005B0000F00016841F0200101600068009045F2E1
:1005C0002051C4F2020144F24B30C4F64F4008609F
:1005D00045F22451C4F20201086840F01F0008608F
:1005E00045F20041C4F20201086840F00E000860C4
:1005F00045F21051C4F20201086840F01100086091
:1006000045F21C51C4F20201086840F01F00086066
:1006100045F20441C4F20201086820F011000860AC
:1006200045F20841C4F20201086820F01100086098
:1006300045F20C41C4F20201086840F01100086064
:1006400045F21C41C4F20201112008604EF21C4127
:10065000CEF20001086820F47F000A68104340F4DD
:10066000001008604EF20011CEF20001086840F060
:100670008040086001B0704780B582B000F032FA67
:1006800000F030FA41F23A00C0F2000000F07EFBC8
:1006900000F028FA41F27A00C0F2000000F076FB88
:1006A00000F020FA41F25700C0F2000000F06EFBAB
:1006B00000F018FA41F24200C0F2000000F066FBC0
:1006C00000F010FA41F24D00C0F2000000F05EFBB5
:1006D00000F008FA41F27100C0F2000000F056FB91
:1006E00000F000FA00F0FEF940F6ED70C0F20000F4
:1006F00000F04CFB00F052FA40F20001C2F200019F
:100700000191087000F0EEF9019890F9000072284C
:1007100009D0FFE740F20000C2F2000090F90000AB
:1007200052280DD1FFE745F23801C4F20201022040
:10073000086041F2AD00C0F2000000F027FB9FE02E
:1007400040F20000C2F2000090F90000672809D0D2
:10075000FFE740F20000C2F2000090F900004728D5
:100760000DD1FFE745F23801C4F20201082008600C
:1007700041F2CA00C0F2000000F008FB7FE040F246
:100780000000C2F2000090F90000622809D0FFE7E3
:1007900040F20000C2F2000090F9000042280DD1A2
:1007A000FFE745F23801C4F202010420086041F27B
:1007B000BB00C0F2000000F0E9FA5FE040F2000088
:1007C000C2F2000090F90000702809D0FFE740F263
:1007D0000000C2F2000090F9000050280DD1FFE7A0
:1007E00045F23801C4F202010620086041F284009B
:1007F000C0F2000000F0CAFA3FE040F20000C2F28E
:10080000000090F90000772809D0FFE740F20000CF
:10081000C2F2000090F9000057280DD1FFE745F221
:100820003801C4F202010E20086041F29D00C0F2BE
:10083000000000F0ABFA1FE040F20000C2F200003E
:1008400090F90000642809D0FFE740F20000C2F2EE
:10085000000090F9000044280DD1FFE745F238016F
:10086000C4F202010020086041F26000C0F2000002
:1008700000F08CFAFFE7FFE7FFE7FFE7FFE7FFE79E
:1008800000F030F900F02EF902B080BD80B540F2E2
:100890006800C2F200003221017090F9000000F0FF
:1008A00011FB45F23801C4F202010020086045F254
:1008B0001041C4F20201086840F01100086000F025
:1008C00079FA014640F20000C2F20000017090F98E
:1008D0000000722809D0FFE740F20000C2F20000D9
:1008E00090F9000052280DD1FFE745F23801C4F21B
:1008F00002010220086041F2AD00C0F2000000F0E9
:1009000045FA9FE040F20000C2F2000090F90000BA
:10091000672809D0FFE740F20000C2F2000090F91A
:10092000000047280DD1FFE745F23801C4F202016B
:100930000820086041F2CA00C0F2000000F026FA68
:100940007FE040F20000C2F2000090F9000062284F
:1009500009D0FFE740F20000C2F2000090F9000069
:1009600042280DD1FFE745F23801C4F2020104200C
:10097000086041F2BB00C0F2000000F007FA5FE03F
:1009800040F20000C2F2000090F90000702809D087
:10099000FFE740F20000C2F2000090F9000050288A
:1009A0000DD1FFE745F23801C4F2020106200860CC
:1009B00041F28400C0F2000000F0E8F93FE040F2AC
:1009C0000000C2F2000090F90000772809D0FFE78C
:1009D00040F20000C2F2000090F9000057280DD14B
:1009E000FFE745F23801C4F202010E20086041F22F
:1009F0009D00C0F2000000F0C9F91FE040F20000C5
:100A0000C2F2000090F90000642809D0FFE740F22C
:100A10000000C2F2000090F9000044280DD1FFE769
:100A200045F23801C4F202010020086041F2600082
:100A3000C0F2000000F0AAF9FFE7FFE7FFE7FFE7D9
:100A4000FFE7FFE780BD000080B592B033208DF84E
:100A500047009DF9470000F035FA45F23801C4F22D
:100A600002010820086000F03DF800F03BF841F278
:100A70000900C0F2000000F089F90DF12900019091
:100A80001E2100F0CBF8019800F036FA00F02AF8A9
:100A900041F21B00C0F2000000F078F9FFE74DF2D0
:100AA0001800C4F200000068C006002801D5FFE766
:100AB000F5E700F017F800F015F80DF10B000090C5
:100AC0001E2100F089F9009845F23802C4F20202B2
:100AD0000021116000F05AF900F004F800F002F86B
:100AE00012B080BD80B50D2000F036F90A2000F06C
:100AF00033F980BD81B04EF27001C4F20F01009154
:100B0000086840F000400860086840F40060086031
:100B10004EF26002C4F20F02106820F4F860106018
:100B2000106800F5A8601060086820F07000086088
:100B300008680860086820F400500860086840F001
:100B4000804008600868072262F39C500860FFE755
:100B50004EF25000C4F20F0000684006002801D495
:100B6000FFE7F5E74EF27001C4F20F01086820F4C8
:100B70000060086001B07047FFE74CF21800C4F253
:100B800000000068C006002801D5FFE7F5E74CF239
:100B90000000C4F20000006840B2704780B582B027
:100BA00000200190FFF7E8FF8DF80300FFE79DF9B3
:100BB00003000D282ED0FFE79DF9030008280AD175
:100BC000FFE7019838B1FFE7082000F0C5F8019869
:100BD0000138019019E09DF90300212814DBFFE79B
:100BE0009DF903007E280FDCFFE7019860B9FFE75D
:100BF0009DF9030000F0B0F80198013001909DF8D4
:100C000003008DF80200FFE7FFE7FFF7B5FF8DF85F
:100C10000300CCE79DF9020002B080BD80B584B02E
:100C20000390029100200190FFF7A6FF8DF80300CA
:100C3000FFE79DF903000D2836D0FFE79DF903007B
:100C400008280DD1FFE7019850B1FFE7039801385C
:100C50000390019801380190082000F07DF81EE013
:100C60009DF90300202819DBFFE79DF903007E288A
:100C700014DCFFE70198029988420FD2FFE79DF844
:100C80000300039908700398013003900198013024
:100C900001909DF9030000F05FF8FFE7FFE7FFF721
:100CA0006BFF8DF80300C4E703990020087004B0BF
:100CB00080BD00004EF20411C4F20F01086840F03C
:100CC000010008604EF20811C4F20F01086840F0FC
:100CD000010008604CF23001C4F2000100200860FD
:100CE0004CF22402C4F200021B2010604CF22802D5
:100CF000C4F20002082010604CF22C02C4F2000280
:100D000070201060086840F201321043086044F21D
:100D10002C51C4F20001086820F0EE000A6810436C
:100D200040F01100086044F22041C4F2000108685C
:100D300040F00300086044F22851C4F20001086842
:100D400020F00300086044F21C51C4F2000108685E
:100D500040F003000860704781B08DF80300FFE7A2
:100D60004CF21800C4F2000000688006002801D58B
:100D7000FFE7F5E79DF903104CF20000C4F2000014
:100D80000160006840B201B07047000080B582B0D9
:100D90000190FFE70198007848B1FFE7019890F9CA
:100DA0000000FFF7D9FF019801300190F2E702B08F
:100DB00080BD0000FFE74DF21800C4F2000000689B
:100DC000C006002801D5FFE7F5E74DF20000C4F2A8
:100DD0000000006840B2704780B584B00390029173
:100DE00000200190FFF7E6FF8DF80300FFE79DF973
:100DF000030003280FD0FFE79DF803000399087054
:100E0000039801300390019801300190FFF7D2FF61
:100E10008DF80300EBE703990020087004B080BD53
:100E20004EF20411C4F20F01086840F0020008609D
:100E30004EF20811C4F20F01086840F00200086089
:100E40004DF23001C4F20001002008604DF224028E
:100E5000C4F200021B2010604DF22802C4F200020E
:100E6000082010604DF22C02C4F2000270201060C5
:100E700045F22042C4F20002106840F00300106006
:100E800045F22C52C4F20002106820F0EE00136804
:100E9000184340F01100106045F21C52C4F20002E9
:100EA000106840F00300106045F22852C4F20002BE
:100EB000106820F003001060086840F2013210430F
:100EC0000860704781B08DF80300FFE74DF218000D
:100ED000C4F2000000688006002801D5FFE7F5E7AE
:100EE0009DF903104DF20000C4F20000016000689B
:100EF00040B201B07047000080B582B00190FFE7BA
:100F00000198007848B1FFE7019890F90000FFF7D9
:100F1000D9FF019801300190F2E70320FFF7D2FFDB
:100F200002B080BD80B582B000200190FFF7F8F9D3
:100F3000FFF7E0FDFFF7BEFEFFF772FFFFF734FBA0
:100F4000FFF7F0F9FFE7FFF741FAFFF727FE014649
:100F50000091312808D0FFE70098322807D0FFE73A
:100F60000098332806D008E0FFF786FB06E0FFF77D
:100F70008DFC03E0FFF768FD00E0FFE7FFF7B2FD3F
:100F8000E1E753656C65637420612053657276698F
:100F90006365204D6F64653A200031202D204D6F30
:100FA000646520313A205043203C2D3E204D43556E
:100FB000310032202D204D6F646520323A204D43A0
:100FC0005531203C2D3E204D4355320033202D20FD
:100FD0004D6F646520333A205043203C2D3E204D18
:100FE000435531203C2D3E204D43553200456E7413
:100FF0006572206120436F6C6F7220666F7220747F
:101000006865204C45443A2000456E746572206145
:10101000204D6573736167653A2000576169746993
:101020006E6720666F722041636B6E6F776C6564CC
:1010300067656D656E742E2E2E0052202D20526530
:10104000640050202D20507572706C650057202D63
:101050002057686974650042202D20426C75650038
:10106000416C6C204C45447320617265206F66664C
:101070000044202D204461726B0047202D204772D0
:1010800065656E0052656420616E6420426C756512
:10109000204C45447320617265206F6E00416C6C7A
:1010A000204C45447320617265206F6E0052656468
:1010B000204C4544206973206F6E00426C7565209A
:1010C0004C4544206973206F6E00477265656E2041
:1010D0004C4544206973206F6E000000FC10000036
:1010E0000000002004000000C00200000011000009
:1010F0000800002068040000DC020000640000001A
:040000050000026D88
:00000001FF
